:020000040800F2
:1000000000000320BD050008992100089B2100087D
:100010009D2100089F210008A12100080000000088
:10002000000000000000000000000000117800083F
:10003000A321000800000000A17800082D7100082D
:100040000D0600080D0600080D0600080D06000844
:100050000D0600080D0600080D0600080D06000834
:100060000D0600080D0600080D0600080D06000824
:100070000D0600080D0600080D0600080D06000814
:100080000D0600080D0600080D0600080D06000804
:100090000D0600080D0600080D0600080D060008F4
:1000A0000D0600080D0600080D0600080D060008E4
:1000B0000D0600080D0600080D0600080D060008D4
:1000C0000D0600080D0600080D0600080D060008C4
:1000D0000D0600080D0600080D0600080D060008B4
:1000E0000D0600080D0600080D0600080D060008A4
:1000F0000D0600080D0600080D0600080D06000894
:100100000D0600080D0600080D0600080D06000883
:100110000D0600080D060008A52100080D060008C0
:100120000D0600080D0600080D0600080D06000863
:100130000D0600080D0600080D0600080D06000853
:100140000D0600080D0600080D0600080D06000843
:100150000D0600080D0600080D0600080D06000833
:100160000D0600080D0600080D0600080D06000823
:100170000D0600080D0600080D060008000000002E
:100180000D0600080D0600080D0600080D06000803
:100190000D0600080D0600080D0600080D060008F3
:0C01A000B12100080D060008BD21000878
:1001B00010B5054C237833B9044B13B10448AFF3A1
:1001C00000800123237010BD6003002000000000A8
:1001D000C048020808B5034B1BB103490348AFF3FD
:1001E000008008BD0000000064030020C048020831
:1001F00001F0FF01102A2BDB10F0070F08D010F8D8
:10020000013B013A8B422DD010F0070F42B3F6D1DB
:10021000F0B441EA012141EA014122F007047FF0F4
:1002200000070023F0E80256083C85EA010586EA4B
:10023000010685FA47F5A3FA87F586FA47F6A5FA87
:1002400087F68EB9EED1F0BC01F0FF0102F0070293
:1002500032B110F8013B013A83EA010313B1F8D13E
:100260000020704701387047002D06BF354603381F
:10027000073815F0010F07D1013015F4807F02BF58
:10028000013015F4C03F0130F0BC0138704700BFA9
:1002900053B94AB9002908BF00281CBF4FF0FF31ED
:1002A0004FF0FF3000F088B9ADF1080C6DE904CED5
:1002B00000F006F8DDF804E0DDE9022304B0704741
:1002C0002DE9F047089D8E4604468846002B4AD10A
:1002D0008A42174662D9B2FA82F64EB1C6F12003BD
:1002E00001FA06F820FA03F3B74043EA0808B440DD
:1002F0004FEA174E1FFA87FCB8FBFEF1230C0EFBEA
:10030000118843EA084301FB0CF29A4209D9FB1811
:1003100001F1FF3080F0EA809A4240F2E780023932
:100320003B449A1AA3B2B2FBFEF00EFB102243EA42
:10033000024300FB0CFC9C4509D9FB1800F1FF327D
:1003400080F0D6809C4540F2D3803B44023840EA9E
:100350000140A3EB0C0300211DB1F3400022C5E9CD
:100360000032BDE8F0878B4205D90DB1C5E9000127
:1003700000210846F5E7B3FA83F1002946D1734519
:1003800002D3824200F20581841A6EEB030201203F
:100390009046002DE5D0C5E90048E2E7002A00F0CC
:1003A0009080B2FA82F6002E40F0A4808A1A030CE4
:1003B0004FEA174E80B2BCB20121B2FBFEFC0EFB2D
:1003C0001C2243EA024304FB0CF29A4207D9FB18B1
:1003D0000CF1FF3802D29A4200F2E080C4469B1A28
:1003E000B3FBFEF20EFB123340EA034302FB04F4BC
:1003F0009C4207D9FB1802F1FF3002D29C4200F266
:10040000CA8002461B1B42EA0C40A5E7C1F1200648
:100410008B4022FA06F71F430EFA01F420FA06F386
:100420002EFA06FE4FEA1749234300FA01F81FFA95
:1004300087FCBEFBF9F01C0C09FB10EE44EA0E44ED
:1004400000FB0CFEA64502FA01F209D93C1900F1A5
:10045000FF3A80F09C80A64540F2998002383C44E7
:10046000A4EB0E041FFA83FEB4FBF9F309FB13445B
:100470004EEA044403FB0CFCA44508D93C1903F1E3
:10048000FF3E80F08280A4457FD9023B3C4443EA92
:100490000040A4EB0C04A0FB02EC64457346E1466B
:1004A00062D35FD05DB1B8EB030264EB090404FAD8
:1004B00006F622FA01F31E43CC40C5E90064002190
:1004C0004FE7B1FBF2FC010C41EA0E4180B240EA79
:1004D00001423B4638463C46B846BE462026B1FB64
:1004E000F7F1A2EB080241EA0C4166E7014618E782
:1004F00010462CE7C6F120022EFA02F3B740B140B5
:1005000020FA02F24FEA174E0A43B3FBFEF8BCB2E0
:100510000EFB1833110C41EA034108FB04F9B0400B
:1005200089454FEA104380B23ED9791808F1FF3C63
:1005300001D289451FD8A1EB0901B1FBFEF909FBE6
:1005400004F80EFB191192B242EA0142424529D247
:10055000BA1809F1FF31C4D24245C2D2A9F1020151
:100560003A44BEE7F0459DD2BEEB02036CEB070CAC
:100570000138E14696E7A7EB09094944A8F1020CC6
:10058000B1FBFEF909FB04F8DBE773467FE7504651
:1005900066E70846FDE63B44023A33E7ACF1020C5D
:1005A0003B441CE749469CE7A1EB0901C446B1FB6B
:1005B000FEF909FB04F8C4E7704700BFDFF834D048
:1005C000002103E00C4B5B58435004310B480C4BAB
:1005D00042189A42F6D30B4A02E0002342F8043B49
:1005E000094B9A42F9D304F023FB23F0AFFB01F04F
:1005F00083F870470000032000E404080000002096
:10060000600100206003002008430120FEE77047DE
:1006100008B500F0D9FDBDE8084000F05BBD00F072
:10062000D5BD704710B50421044622F0C6F9204616
:1006300010BD000038B50C4B0C4C18800C4B8220C0
:1006400019806368984740F6110398420AD1094D12
:1006500023682C60822098472B688220DB689847AB
:10066000002038BD0120FCE7860300204C0000205C
:1006700084030020880300204FF4A071F020FFF7CE
:10068000D9BF0000F7B5394D2B6804461B6982209D
:100690009847208000284ED02B680DF106025B6938
:1006A00001A982209847324B1B78002B4BD0BDF814
:1006B000062040F674639A423FD9ADF80630BDF883
:1006C00006209B1A9BB20A2B42D90B22B3FBF2F3F2
:1006D000284A1288934201D9013A93B2BDF8042006
:1006E000254840F6B8318A4234D8C2F571620E32DC
:1006F000016892B20F25B2FBF5F2204D2D88AA4277
:1007000084BF05F1FF35AAB28A4215468EB22AD9B6
:10071000921B91B21A4E3768BB42BAB28CBF9A1A7A
:10072000D21A92B211440529C4BF05603360036830
:1007300063803368A38003B0F0BDB32A9CBFB422AA
:10074000ADF80620BBE7BDF80630A3F5B473B9E7F2
:100750000023C3E7C2F56D62083292B20E2A016827
:10076000C8D800252A46891A89B2D3E78803002011
:100770008C250020840300208003002086030020B5
:100780007C03002037B568460D461446FFF77AFF14
:10079000BDF8000030B1BDF802302B60BDF8043068
:1007A0002360012003B030BD032821D8DFE800F02A
:1007B000020B12190F4B1A68B2FA82F25209042185
:1007C0000D4804F0C9BC0B4B5A68B2FA82F25209C8
:1007D0000821F5E7074B9A68B2FA82F25209102114
:1007E000EEE7044BDA68B2FA82F252092021E7E719
:1007F000704700BF8C03002000100240032821D85E
:10080000DFE800F0020B12190F4B1A68003A18BF0C
:10081000012204210D4804F09FBC0B4B5A68003A9A
:1008200018BF01220821F5E7074B9A68003A18BF64
:1008300001221021EEE7044BDA68003A18BF0122CA
:100840002021E7E7704700BF8C0300200010024022
:1008500003280DD8DFE800F00206080A0421054845
:1008600004F07FBC0821FAE71021F8E72021F6E721
:10087000704700BF0010024008B5032811D8DFE818
:1008800000F0020A0C0E0421074804F05FFC431E2E
:100890005842584108BD0821F6E71021F4E720210D
:1008A000F2E70020F3E700BF0010024070B5084DEA
:1008B00000240126E0B2FFF7DFFF18B12B68012BFF
:1008C00018BF2E600134052C05F10405F2D170BD6E
:1008D0008C030020012380F87C1080F87D30704765
:1008E0007047002070470000034B8164003918BF37
:1008F00001211970704700BFC335012070470020E7
:100900007047C36B0BB10846184770474FF6FF702E
:100910007047406803689B69184770477047704785
:100920007047704710B5044600F068FD236803491E
:10093000D3F890302046BDE810401847000000D0A2
:1009400008B503680446D3F88430984723682046E6
:10095000DB6F984700F008F9236820465B6F9847E3
:10096000292001F039F900F0FFF8236820465B6F79
:100970009847F8E710B5044609F080FD2368204643
:10098000D3F8BC30BDE81040184700F01BBD00F0A4
:100990001FBD00F051BD00F0F1BC00F061BD00F0E2
:1009A00069BD00F0F5BC08F05CBF10B588210446B5
:1009B00022F003F8204610BD10B590F8381090F8DA
:1009C0007C400C4B8C421A7809D03AB90A4A0B4940
:1009D0001488088810800C8001221A7010BD002A2B
:1009E000FCD0054A05491488088810800C80002234
:1009F000F3E700BFC2350120CC350120CA35012004
:100A000008B5094B1B888B4203D8084B1B889342BF
:100A100005D9074B074A0848A52122F0EDFE074BF0
:100A20001980074B1A8008BDCC350120CA3501203A
:100A30003049020893490208D6490208C835012006
:100A4000C63501202DE9F0410D460446194635B959
:100A5000154B164A164840F2013122F0CDFEC0E98E
:100A600010520368134ED3F89030003A18BF012299
:100A700032709847E569A5B12B681F68337873B168
:100A8000236820465B6B9847236C834207D1616CD7
:100A9000094B28461A883B46BDE8F0411847216CAF
:100AA000F6E7BDE8F08100BF1B4A0208534A02087E
:100AB000D6490208C4350120C8350120034690F804
:100AC0007E0018B1586803681B681847704700001B
:100AD000012108B50022084606F0B2FB0A4B186057
:100AE00028B90A4B0A4A28210A4822F085FE00222A
:100AF0000421012006F043FC074B186018B9074B8E
:100B0000034A2C21F0E708BDA0030020A14A0208F7
:100B1000EA4A0208194B02089C0300205C4B0208B9
:100B2000024B4FF0FF31186806F0D4BBA003002041
:100B3000014B186806F0FABBA0030020024B00210D
:100B4000186806F0C7BB00BFA0030020FFF7F0BF86
:100B500003480449006800231A4606F04BBC00BF56
:100B60009C0300200400002013B5084C00231A4603
:100B700001A9206806F06FFC20684FF0FF330022C7
:100B800001A906F068FC02B010BD00BF9C03002064
:100B900003685B6C18470120704703689B6A18471D
:100BA000FEE740F2EF307047054B0360054B4FF016
:100BB0008062C3F88820BFF34F8FBFF36F8F7047F9
:100BC0006459020800E100E010B504464FF45A6190
:100BD000FFF7EAFF204621F0F0FE204610BD00009E
:100BE00082B0002301930E4B1A6B42F400021A6389
:100BF0001A6B02F400020192019A1A6942F400028F
:100C00001A611A6922F400021A61064B064A1A6137
:100C1000064A5A61064B4FF080629A6002B07047F4
:100C20000038024020270020810E0008A10B000898
:100C300000E100E008B50A2809D8DFE800F0061056
:100C40000E080808081010101000022008BD054BFF
:100C5000054A0648902122F0CFFD0020F6E701204A
:100C6000F4E700BF9E4B0208B94B0208044C02088F
:100C700038B50C46887FFFF7DDFFA58AE28A164B60
:100C80002169586342EA05425A64628BD963521B58
:100C90001A642568082D0ED19A611A615862207F66
:100CA0000E4A42EA0062DA61E2681A620C4A59614D
:100CB000D9601A6038BD0022D8611A61E1680A0A59
:100CC000480902F4784200F4FC600243C1F3C40115
:100CD0000A439A63034AECE700B0024009000100AE
:100CE000012302000123030008B50B280BD8DFE81D
:100CF00000F00612100A0A0A0A080808080802206A
:100D000008BD0520FCE7054B054A06486F2122F087
:100D100073FD0020F4E70120F2E700BF9E4B0208BC
:100D2000454C0208044C02082DE9F04191F81D8061
:100D30000C464046FFF7D8FFA77F05463846FFF729
:100D4000D3FF06463846FFF775FFA18A628B444BF6
:100D5000521A1A649A61228B521A1A61E28A5863F3
:100D600042EA01425A6421696268D963DA60206804
:100D7000802828D0227F0FD8202867D0402865D02F
:100D800004281AD0364B45EA026545F40035B845CB
:100D9000DD6161D0334A44E0B0F5807F04D0B0F526
:100DA000007FEFD1304800E0304840EA0262DA616B
:100DB000E2681A625E62596132E045EA026242F418
:100DC0000032DA61F6E7A068021DDA62227F45EAA6
:100DD000026545F40035DD615E625961017841B11B
:100DE000012921D0224B234A23484FF48D7122F050
:100DF00003FDDA69418822F47F42013922F01002B2
:100E000042EA0122DA610121154BDA6942F020023F
:100E1000DA61DA699206FCD410229A600029B9D00E
:100E2000164A1A60BDE8F081B2F1FF01DA69408824
:100E300022F47F4200F1FF3022F0100242EA002249
:100E400042F0100218BF0121DA61DDE745EA0262D3
:100E5000034B42F40032B4E742F20132E1E700BF53
:100E600000B0024001230100090002000A00020054
:100E70008F4C0208A94C0208044C0208012302000E
:100E8000024B1B68586803685B691847D03501201E
:100E900070B5044625460A4B0C3000266060267269
:100EA000667245F8203B6022294609F051FC04F5A2
:100EB0005A63EE6024359D42FBD1204670BD00BFD1
:100EC00064590208034B1A68D207FCD423229A60A3
:100ED000704700BF00B002407047000030B50F4CB3
:100EE0002568ED07FCD423250904A56041F0010124
:100EF0000225FF2B65636164E0630AD008496562DF
:100F000041EA0363E361074B22626061E0602360B2
:100F100030BDE561039BA363034BF8E700B00240DB
:100F200009000100010002000100030030B50E4C71
:100F30002568ED07FCD423251204A56042F00102C8
:100F40000225FF2B65636264E063E16008D01B0645
:100F500043F00213E361054B65626061236030BDBD
:100F6000034BE3610123F9E700B0024001000200F6
:100F7000020002FF30B50B4C2568ED07FCD4232599
:100F800012041B06A56043F40033022542F001025F
:100F900065636264E063E160E361034B6562606125
:100FA000236030BD00B00240010002000120704704
:100FB0004020704700EB81100830704700EB811033
:100FC000083070470120704741F26400704741F2D9
:100FD000640303FB01000830704741F2640303FB24
:100FE000010008307047012070471020704700EB67
:100FF00001100830704700EB0110083070470846B8
:1010000001F070BB10B5034B0360044608F07BF998
:10101000204610BD1C5A020810B50446FFF7F2FF27
:101020002046482121F0C9FC204610BD10B5034BD5
:101030000360044608F067F9204610BDE85902082D
:1010400010B50446FFF7F2FF204641F26C0121F093
:10105000B4FC204610BD000010B5034B03600446ED
:1010600008F051F9204610BDB459020810B50446E5
:10107000FFF7F2FF2046182121F09FFC204610BD0B
:1010800010B5094B0360044600F584501830FFF793
:10109000B9FF04F12C00FFF7C9FF04F11400FFF7BA
:1010A000DBFF204610BD00BF505A020808B50248B9
:1010B000FFF7E6FF08BD00BF8012002010B5044610
:1010C000FFF7DEFF204641F2442121F076FC204666
:1010D00010BD00002DE9F34101F0E4F8054601F0F0
:1010E000E5F800240146234628462246009412F0E3
:1010F00021FC274B274A1A60204601F06DFF264D40
:10110000264B274A27489A6012F07AFB2B68BFF3D8
:101110005B8FDB0736D4284621F051FC90B3224C7C
:10112000224F234B236007F1500604F1140004F111
:101130002C086060C4F80880E760266108F0E4F8D5
:101140001C4B6361404608F0DFF81B4BE3623846F6
:1011500008F0DAF804F58053184AC3F8982004F52B
:10116000875002F0D9FF224604F58751304602F03D
:10117000C9FF304601F0B6FA114822F05BFB284661
:1011800021F029FC0F4802B0BDE8F041FFF7CABBCF
:101190002C3601202C0400207C1200204C0400205E
:1011A00030040020080000208012002018230020B6
:1011B000505A0208B4590208E85902081C5A020899
:1011C000AD100008A4030020704700000148FFF79D
:1011D000B7BB00BFA403002070B5274E274C284D95
:1011E000284B23603046FFF753FE284617F026FEB3
:1011F000254810F093F8254B2548DC6000224FF479
:101200008071C3E9131223491A63C3E91B122249EF
:101210009A86C3E91F012149C3F884102049214857
:1012200083F85C20C3E90422C3E90622C3E908224B
:10123000C3E90A22C3E90F22C3E91122C3E9152237
:10124000C3E918229A6683F874209A67C3E9016596
:101250000B60F02101801448018014484FF4A07104
:1012600001801348018013490A70012283F8382055
:10127000114A1A6070BD00BFD80400207812002007
:101280004C0400202049020830040020A403002060
:101290000000010101000001000450001A001400C8
:1012A000D0350120CC350120C8350120CA350120B8
:1012B000C6350120C2350120785802080148FFF7E1
:1012C00073BC00BFD80400200020704781807047A5
:1012D000C1807047018170474181704770477047F6
:1012E00070477047704710B4C4880368121B848825
:1012F0005B6D091B12B25DF8044B09B218474FF63B
:10130000FF7383814FF0FF3303621368C361106082
:101310007047002070478B8883800120704770479A
:1013200080F82610704790F82600704710B500220C
:10133000B1F90840B1F90A10028042808480C1806E
:1013400010BD0022028042808280C28070470177F7
:10135000704780ED080A704780F82410704780F8C5
:101360002510704701207047983070478C307047C7
:10137000843070477047704770470000034B9022DD
:1013800083F85A2383F85823704700BF00E100E038
:10139000094A0A49D3680A48C3F30A03013B9BB2CE
:1013A0000B801169C1F30A01013901801364536B89
:1013B00043F001035363704700680140C6240020D6
:1013C000C4240020014BD3F8AC00704700680140F2
:1013D000024B0122C3F8AC105A627047006801400A
:1013E00010B52C21044621F0E8FA204610BD10B5B6
:1013F000BC21044621F0E1FA204610BD70B5044638
:1014000008F085FA23689D6E0EF06AFD01462046BD
:10141000A8472368054AD3F88C502046AC460023E1
:10142000BDE87040A2F51631604700BF00B004D09F
:1014300008F054BA08F05EBA08F019BA08F085BB93
:1014400090F8252012B103685B691847704790F83F
:1014500025201AB190F8242002B1186070470000CE
:10146000034B4FF080629A604FF080729A60704731
:1014700000E100E0084B4FF08062C3F88820BFF322
:101480004F8FBFF36F8F4FF08072C3F88820BFF388
:101490004F8FBFF36F8F704700E100E070B50023FE
:1014A000124E8380124B0360336893F85C2005462C
:1014B0000AB1186D00B9986803681B6B98473368C8
:1014C000B0FA80F4186D640930B103681B6B98475B
:1014D000002808BF44F001042CB9064B064A07480F
:1014E0002C2122F089F9284670BD00BFD03501209B
:1014F000645A0208E74C0208454D02087E4D020876
:1015000070B5254E3568BFF35B8F15F0010540D1EE
:10151000304621F054FA00283BD0204C204B256166
:1015200004F13400C4E90035C4E90255E584A5623C
:10153000A58510F0DAF904F158000BF065FA194BA3
:10154000A3652046184B40F8843BFFF7A7FF174BD5
:10155000C4F884302433C4F88C304FF4C803C4E991
:1015600028350023C4F8AC30C4F8B030C4F8B43027
:10157000C4F8B8300E480F4BC4F89050C4F89C50D3
:10158000C4F8A850C4F8983022F054F9304621F03D
:1015900022FA024870BD00BFC8240020CC240020DD
:1015A00024630208845A0208FC5A0208D86202081E
:1015B00079130008B862020838B5184C23685BB389
:1015C000174B184A1B6C11888B4216D1164B198881
:1015D00004F0CAFB236893F86E200025013283F8DB
:1015E0006E2083F88050FFF7B3FA206808F046FFBA
:1015F0002846BDE83840FFF7D7B804F0B5FB2468AB
:10160000236820461B6A9847012384F88030002015
:10161000BDE83840FFF7F2B838BD00BFD035012033
:1016200000680140C6240020C424002007B5064BF2
:10163000ADF806001B68054801220DF1060105F012
:1016400033F903B05DF804FB0C000020CC2500202A
:1016500008B5642005F0E8FDFBE7000030B595B063
:10166000102200210AA822F00CFB1422002103A85A
:1016700022F007FB00241E4B01941A6C42F08052AA
:101680001A641B6C03F080530193019B194B029465
:101690001A6842F440421A601B6803F44043029304
:1016A0000122029B4FF48033CDE9082302254FF439
:1016B00080030821CDE90E534FF4B473CDE9101324
:1016C00008A804231393129504F0A6FB04F06AFB08
:1016D0000F23CDE903354FF4A0504FF48053CDE9EB
:1016E0000603052103A8059404F072FD15B030BD72
:1016F000003802400070004080B59AB003F0A6FAAE
:10170000FFF7ACFF142200210DA822F0BAFA002442
:10171000C74B00941A6BC748C74DDFF8588342F097
:1017200010021A631A6B02F010020092009A0194E0
:101730001A6B42F020021A631A6B02F02002019227
:10174000019A02941A6B42F080021A631A6B02F03B
:1017500080020292029A03941A6B42F004021A6306
:101760001A6B02F004020392039A04941A6B42F07B
:1017700001021A631A6B02F001020492049A0594A2
:101780001A6B42F002021A631A6B02F0020205920F
:10179000059A06941A6B42F040021A631A6B02F023
:1017A00040020692069A07941A6B42F008021A63E6
:1017B0001B6B03F00803224607933C21079B03F0B1
:1017C000CBFC9E480122022103F0C6FC22469B4826
:1017D000042103F0C1FC224699484FF4405103F024
:1017E000BBFC01263C23CDE90D3692480F94032320
:1017F0000DA90227109303F0C5FB90480DA9CDE970
:101800000D76CDE90F4403F0BDFB04238B480DA9F1
:10181000CDE90D36CDE90F4703F0B4FB0DA94FF428
:1018200040538748CDE90D36CDE90F4703F0AAFBB9
:101830008448854B036003F09BFADFF83CE2834B5E
:101840002C62C5E900E328464FF48043C5E904341F
:10185000C5E90244C5E9064403F08CFE1021284680
:1018600004F0D0F821462846794D04F0EAF84FF408
:101870008273C5E900834FF400791823C5E9069304
:1018800028460A23C5E90244C5E90444C5E90844D9
:10189000AC62EB6204F0ACFF8F2322463946674806
:1018A0008DF824308DF8344003F056FC32464FF466
:1018B0007A7309A9284604F0F7FF4FF47A73324689
:1018C0000DA9284605F09CF9324639465B48614D22
:1018D00003F042FC9DF83430D32B04BF5E4B1E70E6
:1018E0005E4B0126C5E90036102240230024C5E9DD
:1018F00004234FF4C073C5E906344FF40063C5E90F
:1019000008344FF4005302274FF00409AB624FF044
:10191000030A07230DA92846CDE90D73CDE90F93DE
:101920004FF00808C5E90249CDE911A7139704F063
:1019300043FE4FF6FF7209A92846CDE90A860894AE
:1019400009960C9404F058FE304603F0ABF94FF6BC
:10195000FF7209A92846CDE90978CDE90B6404F0A6
:101960004BFE4FF6FF7209A92846CDE909A8CDE93B
:101970000B9404F041FE4FF40C730893089B0C93F6
:101980004FF6FF7209A92846CDE909980B9604F095
:1019900033FE40F26A51284604F04CFE34220DEB2F
:1019A0000200214622F06DF92D4D2E4B2C61C5E928
:1019B00000340923C5E905361D23C5E9073A40F27D
:1019C0000D1140F24313C5E9091340F2171040F21C
:1019D0004713C5E90B032846C5E90244AC8685F8E0
:1019E000364004F0C9F8FF214FF4806CF022CDE9B5
:1019F00012140521CDE914C14FF4A0730DA9CDE94E
:101A00000E24CDE9164228462246174D1893CDE9FB
:101A100010370D94ADF864408DF8664004F077F906
:101A2000124B2B601B6898472B68114DDB6825E033
:101A30000038024000100240CC260020000802407E
:101A4000000C02406027002000300240A086010008
:101A5000CC250020982500208C250020400100A0E6
:101A60002426002000680140882500201400002062
:101A70002027002000500140005C00409847134B95
:101A80002846C5E90034C5E90274C5E90A47C5E935
:101A90000C4403F07DF93146284603F02FFAFEF797
:101AA000B7FDFEF7B4FD05F04FFB094A0948214692
:101AB00005F076FB084B094A18602146084805F0F6
:101AC0006FFB084B186005F051FBFEE700B00240C9
:101AD000645B02085116000894250020405B020850
:101AE0001F06000890250020704770477FB5094BFE
:101AF0008DF817201B6802930DF117020123009245
:101B000001930A460146044803F0DCFD07B05DF886
:101B100004FB00BF10000020CC2600207FB500236E
:101B20008DF81730084B1B6802930A4601230DF10C
:101B30001701009101930146044803F053FE9DF8FC
:101B4000170007B05DF804FB10000020CC26002031
:101B50001FB5084C24680092CDE901340A460123E0
:101B60000146054803F03EFE003818BF012004B0CE
:101B700010BD00BF10000020CC26002003F092B85A
:101B800010B5064C00222046042103F0E5FA204659
:101B90000122BDE81040042103F0DEBA0008024033
:101BA00038B50B4D044601220A484FF4005103F0AA
:101BB000D3FA00220421284603F0CEFA2046FFF78C
:101BC00035FD28460122BDE83840042103F0C4BA9F
:101BD00000080240000C024038B50B4D04460022BC
:101BE0000A484FF4005103F0B7FA002204212846B6
:101BF00003F0B2FA2046FFF719FD28460122BDE89E
:101C00003840042103F0A8BA00080240000C02404A
:101C1000F7B5144E144F05460C46304600220421F9
:101C200003F09AFA00224FF40051384603F094FA78
:101C30002846FFF7FBFC0D4B0D481B68224601A907
:101C400004F0DEFF384601224FF40051019C03F0FE
:101C500083FA30460122042103F07EFA204603B0C5
:101C6000F0BD00BF00080240000C02400C00002044
:101C7000CC25002003F016B80268034B9A4201D12C
:101C800002F0FEBF704700BF001000407047000028
:101C900082B00E4B00220092596C41F4804159648D
:101CA000596C01F48041009100990192196C41F046
:101CB000805119641B6C03F080530193019B0F2129
:101CC0006FF0010002B003F013B800BF003802400B
:101CD0000268094B9A4282B00BD100230193074B53
:101CE0001A6B42F480521A631B6B03F48053019306
:101CF000019B02B0704700BF003002400038024034
:101D000007B50F4B02689A4216D10022A3F5F043A3
:101D10000192196B41F4000119631B6B03F400037A
:101D2000019305215A20019B02F0E2FF5A2003B0E3
:101D30005DF804EB03F00EB803B05DF804FB00BFE0
:101D400000B002402DE9F043044689B0142200217E
:101D500003A821F096FF2268244B9A4243D1244CD9
:101D6000244800250095236B43F004032363236B71
:101D700003F004030093009B0195236B43F00103E0
:101D80002363236B03F001030193019B4FF01209BE
:101D90004FF400734FF001080327042603A9CDE98F
:101DA0000339CDE90587079603F0ECF84FF480730B
:101DB0001148079603A9CDE90339CDE9058703F05A
:101DC000E1F80295236C43F400032364236C03F4CD
:101DD00000030293029B236A43F400032362236AF5
:101DE00023F40003236209B0BDE8F083005C0040E7
:101DF000003802400008024000000240F0B599B0EF
:101E000004461422002107A821F03BFF30220DEBED
:101E10000200002121F035FF22685E4B9A4240F01B
:101E2000B78008230C93C0231093042312930CA8AB
:101E30004FF40033159304F093FA08B1FFF726FF2F
:101E4000554B5648002400945A6C42F080625A6404
:101E50005A6C02F080620092009A01941A6B42F070
:101E600020021A631A6B02F020020192019A029476
:101E70001A6B42F001021A631A6B02F0010202921D
:101E8000029A03941A6B42F002021A631A6B02F070
:101E900002020392039A04941A6B42F040021A63FE
:101EA0001A6B02F040020492049A05941A6B42F0F5
:101EB00004021A631A6B02F004020592059A069452
:101EC0001A6B42F008021A631B6B03F008030693B7
:101ED00002250E26069B0B964FF4806307A9CDE9D9
:101EE0000735CDE9094503F04DF841F658032C4874
:101EF0000B9607A9CDE907350927CDE9094503F078
:101F000041F8032327480B9707A9CDE90735CDE909
:101F1000094503F037F84FF4706322480B9607A980
:101F2000CDE90735CDE9094503F02CF84FF40C63F2
:101F30001D480B9607A9CDE90735CDE9094503F002
:101F400021F8C02319480B9607A9CDE90735CDE93B
:101F5000094503F017F8082315480B9607A9CDE9A2
:101F60000735CDE9094503F00DF84FF4A0530E48AD
:101F70000B9707A9CDE90735CDE9094503F002F82C
:101F800058202246052102F0B3FE582002F0E2FE5E
:101F900019B0F0BD00680140003802400014024052
:101FA0000000024000040240001802400008024005
:101FB000000C024010B5044688B01422002103A88A
:101FC00021F05FFE2268144B9A4223D103F5684347
:101FD000002101915A6C114842F480125A645A6CE3
:101FE00002F480120192019A02911A6B42F02002CF
:101FF0001A631B6B03F020030293029B4FF4607281
:1020000002230321CDE903230523CDE9061303A908
:1020100002F0B8FF08B010BD0050014000140240AB
:102020002DE9F04186B0002303932B4B1C68002C54
:102030004FD14FF00108C3F80080284B00949A6BF1
:10204000274842EA08029A639B6B03EA080300935D
:10205000022703260C25009B01A94FF63F03CDE97B
:102060000137CDE9046502F08DFF1E48059501A9F1
:10207000CDE90187CDE9034602F084FF48F233132E
:102080001948059501A9CDE90137CDE9034602F0CC
:1020900079FF4FF683731548059501A9CDE90137FE
:1020A000CDE9034602F06EFF4CF20373104805952C
:1020B00001A9CDE90137CDE9034602F063FF6023B2
:1020C0000C48059501A9CDE90137CDE9034602F099
:1020D00059FF06B0BDE8F0816827002000380240B3
:1020E00000140240000802400018024000100240A4
:1020F000000C02400004024070B588B00023029337
:10210000204B1A6C42F010021A641B6C03F010038F
:102110000293054601A903A8029B04F003F9069B5C
:102120004BBB04F0EFF8184E184B336040F2E73326
:10213000F360174BB0FBF3F3013B736030460023B1
:102140003361B360B36104F02BFF044680B93046BD
:1021500004F0FCFD044658B9362002F0FBFD0F2DBB
:102160000DD822462946362002F0C2FD094B1D60DB
:10217000204608B070BD04F0C5F84000D3E7012444
:10218000F6E700BF003802406C2700200010004036
:1021900040420F007C0000207047FEE7FEE7FEE7AC
:1021A000FEE77047014804F00FBE00BF6C27002017
:1021B000014803F04FBD00BF24260020014802F073
:1021C00013BE00BF202700200120704708B521F072
:1021D000B7FD162303604FF0FF3008BD08B521F0AE
:1021E000AFFD16230360FEE770B50D4614460E469C
:1021F000731B9C4201DC204670BDAFF3008006F8E3
:10220000010BF5E770B50D4614460E46731B9C4254
:1022100001DC204670BD16F8010BAFF30080F5E736
:102220004FF0FF3070474FF400534B600020704771
:1022300001207047002070470A4A116808B503461C
:1022400009B9094911601068694603448B4206D9EF
:1022500021F076FD0C2303604FF0FF3008BD1360C2
:10226000FCE700BFB427002008430120704710B5E9
:102270000421044620F0A1FB204610BD012908B529
:1022800006D0022908D059B900F0F2FE006808BD56
:1022900000F0EEFE4068FAE700F0EAFE8068F6E73C
:1022A0000020F4E7004870479C5B0208012070475B
:1022B00013B5002451B1036801948DF8034001AABD
:1022C0009C680DF10303A04702B010BD0846FBE770
:1022D000C0897047008A7047C088704780887047FF
:1022E000807A00F07F007047807AC0097047002034
:1022F000704700009FED010A704700BF000000001A
:10230000704710B50821044620F057FB204610BD49
:102310007047704700F598730868496803C37047B1
:10232000704770474160704770477047064BC0F870
:102330004C310023C0F8503100F5A273C0F84801B9
:10234000C0F84031704700BF692B000801230372B9
:1023500070477047704710B4C26841685410034614
:1023600001EB6200D20748BF0A599B685DF8044B35
:1023700048BFD35818470346406830B19A681AB925
:10238000D86800F0010070470120704710B50C219B
:10239000044620F012FB204610BD10B51021044663
:1023A00020F00BFB204610BD10B54FF4AE71044673
:1023B00020F003FB204610BD10B54021044620F05C
:1023C000FCFA204610BD10B50DF08AFD0368BDE88B
:1023D0001040DB6B18470000054B1B7801462BB102
:1023E000406818B103680C315B6E1847704700BF36
:1023F000C3350120037A70B50546BBB94068036850
:10240000DB69984704463CB96868036805F10C012C
:102410001B6EBDE870401847A1886B8FC91A2368EE
:1024200020461B6B09B29847A469ECE770BD10B554
:102430000446D0F8400158B10368DB68984738B1CA
:10244000D4F8400103689B6898470023C4F84031E2
:1024500010BD70B5044690F8390094F8383001305A
:10246000C0B2984284F8390005D9012323720023B1
:1024700084F8393070BDB4F93A2000210FF013FF11
:10248000C30706D500284FF6FF73C8BF01231844C1
:1024900000B2238AC01AA08760680368DB69984786
:1024A00005462DB960680368BDE870405B69184750
:1024B000A988A38F19442B6828461B6B09B298473B
:1024C000AD69EEE72DE9F14FD0E9556A0746B068EE
:1024D00003681B6A9847B0F5DC7F05D2564B574A14
:1024E000A321574821F088F9706803681B6A984750
:1024F0000F2803D8534B514AA421F2E7F068036830
:102500001B6A98473F2803D84F4B4C4AA521E8E760
:102510000DF0E6FCDFF8449104300DF006FDD9F82B
:10252000000010B10368DB689847D9F8000010B1CB
:1025300003681B689847DFF82881D8F8000010B1BD
:1025400003685B699847D7F83C0110B103685B6882
:102550009847D8F8000010B103681B689847D7F86F
:102560003C0110B103689B689847F068036800213C
:102570005B6A984705460023344A4360037245F876
:102580000C2B044628460AF0D9FA14222287304A36
:1025900012780023A387002A35D101232372B06863
:1025A000036800215B6A9847054602F095F8706859
:1025B000036800215B6A98472946064602F06AF8DC
:1025C000331DC7F83C61C9F80040C8F80050CAF88C
:1025D00000302B68C6F808A02846DB68EE639847F1
:1025E000336830461B689847214628460FF055FE51
:1025F000236820461B69984723685B69204601B021
:10260000BDE8F04F18471349134AB1F900B0E1682B
:10261000236128468B6BB2F900109847E36859464E
:10262000DB6B2846984728460AF004FA0A4A1388C2
:102630005B426387B3E700BFF54D0208834E020893
:102640006A4F0208B14F020854500208585C020851
:10265000C3350120CA350120CC35012018360120B0
:102660001C360120044B1B6893F85C200AB1186DDE
:1026700000B99868704700BFD0350120F8B51746FB
:1026800004460E460DF0F2FC124B1C60124B236008
:10269000124B0025C4E95135114BC4E95355186854
:1026A000036801219B68C4E94F55C4E955769847F2
:1026B000284600F091FCFFF7D5FF18F06EFAFFF7FF
:1026C000D1FF18F0E5FAFFF7CDFF18F0EDFA20463C
:1026D000F8BD00BF20360120E05B0208C85B02089D
:1026E000D0350120064BC0F84C310023C0F85031E2
:1026F00000F5A273C0F84801C0F84031704700BF30
:10270000692B0008064BC0F84C310023C0F850314B
:1027100000F5A273C0F84801C0F84031704700BF0F
:10272000C5240008064BC0F84C310023C0F85031D6
:1027300000F5A273C0F84801C0F84031704700BFEF
:102740001D2A0008064BC0F84C310023C0F8503158
:1027500000F5A273C0F84801C0F84031704700BFCF
:10276000D5280008064BC0F84C310023C0F8503182
:1027700000F5A273C0F84801C0F84031704700BFAF
:102780008D27000803685B6A184700002DE9F14FA8
:10279000D0E9556A0746B06803681B6A9847B0F5E8
:1027A000826F05D2434B444AA321444821F024F8C8
:1027B000706803681B6A98470F2803D8404B3E4A4D
:1027C000A421F2E7F06803681B6A98470B2803D836
:1027D0003C4B394AA521E8E70DF082FBDFF8EC908D
:1027E00004300DF0A2FBD9F8000010B10368DB68DB
:1027F0009847D9F8000010B103681B689847DFF8C4
:10280000D080D8F8000010B103685B699847D7F80A
:102810003C0110B103685B689847D8F8000010B11C
:1028200003681B689847D7F83C0110B103689B68A0
:102830009847F0680021FFF7A5FF4FF0000B224BEF
:10284000C0F804B0044680F808B00360B0680368BC
:1028500059465B6A9847054601F0B4FC7068036806
:1028600059465B6A98472946064601F069FC331DC4
:10287000C7F83C61C9F80040C8F80050CAF80030F9
:102880002B68C6F808A02846DB68EE6398473368D3
:1028900030461B689847214628460FF0FEFC236807
:1028A00020461B69984723685B69204601B0BDE854
:1028B000F04F1847F54D0208F75002086A4F02081A
:1028C000B14F020854500208345C02081836012047
:1028D0001C3601202DE9F14FD0E9556A0746B06852
:1028E00003681B6A9847B0F5337F05D2434B444ACF
:1028F000A321444820F080FF706803681B6A984752
:102900000F2803D8404B3E4AA421F2E7F068036841
:102910001B6A98470B2803D83C4B394AA521E8E7A6
:102920000DF0DEFADFF8EC9004300DF0FEFAD9F885
:10293000000010B10368DB689847D9F8000010B1B7
:1029400003681B689847DFF8D080D8F8000010B102
:1029500003685B699847D7F83C0110B103685B686E
:102960009847D8F8000010B103681B689847D7F85B
:102970003C0110B103689B689847F0680021FFF79D
:1029800001FF4FF0000B224BC0F804B0044680F862
:1029900008B00360B068036859465B6A984705460B
:1029A00001F05EFE7068036859465B6A98472946E5
:1029B000064601F033FE331DC7F83C61C9F80040FC
:1029C000C8F80050CAF800302B68C6F808A028469E
:1029D000DB68EE639847336830461B6898472146AA
:1029E00028460FF05AFC236820461B699847236845
:1029F0005B69204601B0BDE8F04F1847F54D02086D
:102A0000DB5102086A4F0208B14F02085450020815
:102A1000345C0208183601201C3601202DE9F14FE4
:102A2000D0E9556A0746B06803681B6A984741F2C7
:102A30006303984205D8444B444AA321444820F0FC
:102A4000DBFE706803681B6A98470F2803D8414B68
:102A50003E4AA421F2E7F06803681B6A98470B28F6
:102A600003D83D4B394AA521E8E70DF039FADFF8E4
:102A7000F09004300DF059FAD9F8000010B1036855
:102A8000DB689847D9F8000010B103681B689847C5
:102A9000DFF8D080D8F8000010B103685B69984770
:102AA000D7F83C0110B103685B689847D8F800007C
:102AB00010B103681B689847D7F83C0110B1036850
:102AC0009B689847F0680021FFF75CFE4FF0000B11
:102AD000224BC0F804B0044680F808B00360B06828
:102AE000036859465B6A9847054601F0A7FB706882
:102AF000036859465B6A98472946064601F07CFB05
:102B0000331DC7F83C61C9F80040C8F80050CAF846
:102B100000302B68C6F808A02846DB68EE639847AB
:102B2000336830461B689847214628460FF0B5FBAE
:102B3000236820461B69984723685B69204601B0DB
:102B4000BDE8F04F184700BFF54D0208AF5202082C
:102B50006A4F0208B14F020854500208345C020860
:102B6000183601201C3601202DE9F14FD0E9556AB5
:102B70000746B06803681B6A9847B0F5DC7F05D24A
:102B8000434B444AA321444820F036FE7068036852
:102B90001B6A98470F2803D8404B3E4AA421F2E70E
:102BA000F06803681B6A98470B2803D83C4B394AE6
:102BB000A521E8E70DF094F9DFF8EC9004300DF072
:102BC000B4F9D9F8000010B10368DB689847D9F868
:102BD000000010B103681B689847DFF8D080D8F870
:102BE000000010B103685B699847D7F83C0110B149
:102BF00003685B689847D8F8000010B103681B6849
:102C00009847D7F83C0110B103689B689847F06873
:102C10000021FFF7B7FD4FF0000B224BC0F804B0C6
:102C2000044680F808B00360B068036859465B6AE0
:102C30009847054601F050FD7068036859465B6A85
:102C400098472946064601F025FD331DC7F83C612B
:102C5000C9F80040C8F80050CAF800302B68C6F820
:102C600008A02846DB68EE639847336830461B6847
:102C70009847214628460FF010FB236820461B6921
:102C8000984723685B69204601B0BDE8F04F1847BC
:102C9000F54D02087B5302086A4F0208B14F020843
:102CA00054500208345C0208183601201C360120FA
:102CB000406A7047806A704770478A880B8810B5F1
:102CC000D20A4C88C1699BB251F8220043EA0443FE
:102CD000184410BD10B50446BAB1107B68B1537BDF
:102CE000D27A1B0203F4E0631A43236A03EB8203E4
:102CF0001A888A4202D193F9020010BD05D8013822
:102D000080B204330028F3D1F7E70020F5E710B5CF
:102D10002C2104461FF051FE204610BD30B58BB06B
:102D20000446BDF860500895BDF85C5007959DF8C5
:102D3000505006959DF84C5005959DF848500495C7
:102D40009DF8445003959DF8405002959DF83C50E5
:102D50000195BDF8385000950EF084FE064B2360B7
:102D6000159BE361169B2362199B63621A9BA36206
:102D700020460BB030BD00BF7C5C020870470000ED
:102D800030B5164D2C6814F001048FB0BFF35B8F83
:102D900020D128461FF013FEE0B13F230993104BCA
:102DA0000893104B104911480A940122CDE90643BB
:102DB0000423CDE903320A230093CDE90B44CDE986
:102DC00001440594FFF7AAFF094820F033FD284687
:102DD0001FF001FE05480FB030BD00BFB82700202E
:102DE000708A0208C48A0208E8870208BC2700200B
:102DF0007D2D00087047000030B5174D2C6814F089
:102E000001048FB0BFF35B8F22D128461FF0D7FD9E
:102E1000F0B13F230993114B0893114B0793012302
:102E2000CDE9054304930423CDE9024314230D495E
:102E3000009324221823CDE90B440B480A940194F3
:102E4000FFF76CFF094820F0F5FC28461FF0C3FD92
:102E500005480FB030BD00BFE8270020748A020883
:102E6000C88A0208F8870208EC270020F52D000820
:102E70007047000030B5174D2C6814F001048FB076
:102E8000BFF35B8F22D128461FF099FDF0B13F239D
:102E90000993114B0893114B114912480A94CDE93B
:102EA000064301220423CDE903322823009309229B
:102EB0002923CDE90B44CDE901440594FFF72EFF0A
:102EC000094820F0B7FC28461FF085FD05480FB0E3
:102ED00030BD00BF18280020BC8A0208CC8A020836
:102EE000F08902081C280020712E0008002070477D
:102EF000002070470EB403B503AB002153F8042B38
:102F000001930EF033F802B05DF804EB03B07047A4
:102F10000CB407B504AB53F8042B01930EF026F85C
:102F200003B05DF804EB02B070470000436C10B5CD
:102F3000044673B3038F2BB9184B194AC52119489E
:102F400020F05AFCC38E00EB43035B8C0BB30FF0F5
:102F5000E7FE238F012B03D8134B144ACB21EEE756
:102F6000E28E531C9BB2092B194688BFA3F10A01BC
:102F700004EB410140F63F10498C814209D10A2BF4
:102F800004EB420228BF002304EB4303508C588417
:102F900051842046BDE810400FF0C5BD4F540208D3
:102FA00058540208035502084D5502085B550208A3
:102FB0000FF081BD10B586B002AC84E806001A4659
:102FC0000AAB05930193099B00932146089B0CF0E3
:102FD000FCFA06B010BD000038B518BB124B134800
:102FE0001C681349B4B1226822440260626822441A
:102FF0000A60A26814440F4B00221A8000F038F8CF
:10300000054600F033F80C4B1C600C4B1D600C4B5C
:10301000188007E00B4B03600B4B0B600B4B1C68DD
:10302000002CE8D138BD00BF542800204C280020D7
:103030004828002050280020303601202836012062
:1030400024360120108B0208D08A0208DC5C0208BA
:10305000044B1B6853F82100034B1B6803EB400033
:10306000704700BF482800204C28002010207047DF
:10307000004870475828002010B5FFF7BDFE044CEB
:103080002060FFF7F7FE6060FFF77AFEA06010BDDA
:103090005828002010B5002404600C6014601C60E7
:1030A00010BD806A7047704770477047704770471F
:1030B0007047704770477047704770477047704758
:1030C00090F82C304BB100F16C021268C2653BB134
:1030D00000F174031B680366704700F16802F4E7AF
:1030E00000F17003F6E708B590F82C303BB100F121
:1030F000C4031B68C0F8A830FFF7E2FF08BD00F169
:10310000C003F6E730B4C26844685510034604EBC8
:103110006200D20748BF62599B6830BC48BFD35891
:1031200018470346406830B19A681AB9D86800F069
:10313000010070470120704790F82D3080F8AE30C4
:1031400080F85A30704790F82D3080F85A30704728
:1031500010B5782104461FF030FC204610BD10B594
:10316000C82104461FF029FC204610BD10B51021CF
:1031700004461FF022FC204610BD10B54FF48261BA
:1031800004461FF01AFC204610BD38B500F1E003DC
:10319000994204460D4602D10368DB6A984704F55C
:1031A000D4739D4203D1236820461B6B984704F5D6
:1031B0001C739D4203D1236820465B6B984704F53E
:1031C0004E74A54205D10CF08BFEBDE83840FFF7E8
:1031D00089BA38BD10B50446006B50B10368DB688E
:1031E000984730B1206B036821469B68BDE81040CA
:1031F000184710BD0B7970B590F82C6004460D4649
:103200000BB916B170BD002EFCD0B3FA83F35B0985
:1032100084F82C3023682046D3F88C3098472368F4
:1032200020465B699847002EECD02B79012BE9D121
:1032300023682046D3F88830BDE87040184701293C
:1032400008B505D10CF04CFEBDE80840FFF76ABA9E
:1032500008BD0000074A02600022C0E90122C0E95F
:103260000322C0E90522C0E907224FF4807282845C
:10327000704700BF4C67020870B5036804461B6BBB
:10328000154698472368294620465B6BBDE8704089
:10329000184770B5036804469B6B1546984723682A
:1032A00029462046DB6BBDE87040184738B5044618
:1032B0001D46FFF7E1FFBDF9102029462046FFF724
:1032C000E8FF38BD10B526220446002120F0D9FCC5
:1032D0002046FFF7BFFF044B2360FF2384F826300E
:1032E0000023A362204610BD1866020810B52622EE
:1032F0000446002120F0C5FC2046FFF7ABFF0A4B37
:1033000023600A4BA3624FF6FF73A3854FF47F023D
:103310000023C4E90C3223874FF0FF32C4E91023A5
:10332000E363204610BD00BF88650208B85B020851
:1033300070B50446FFF78EFF4FF47F432646A38502
:103340000123002584F82430144BA562256346F838
:10335000343B3046FFF7B6FF114B63632A462946DC
:103360003046C4E91A55C4E91C552566A4F86450D2
:10337000FFF782FF31462046264605F0D8FF094B6D
:1033800046F8783B3046FFF7B1FF2046C4E9305598
:10339000314605F0CCFF204670BD00BFE85C020856
:1033A00080660208845D020810B40367019B4367CE
:1033B00003685DF8044BD3F88C30C0E91A12184743
:1033C00038B5044600F17805284609F075FFB4F9D0
:1033D0000A20B4F908102846FFF75BFF38BD0368E0
:1033E000C0E93012D3F88C30184700002DE9F04FB7
:1033F00004468BB0A14600250EF0B4FDB24BE56348
:1034000049F8403B04F16C0A4846FFF75BFF04F1C2
:103410009808504604F1E007FFF754FF404604F5D2
:10342000D476FFF763FF3846FFF782FF3046FFF799
:103430007FFF04F51C7318460293FFF779FF04F52C
:103440004E7318460393FFF773FFA04BC4F8003484
:103450004FF4A07B9E4BC4F808342A46C4F80444B9
:10346000C4F80C542946CDF800B04846F023FFF7C5
:103470001DFF4FF07F43A3664946201D05F057FF0F
:103480002A46CDF800B029465046F023FFF70EFF3C
:103490004FF07F43C4F894305146201D05F047FF9C
:1034A00021230093262229464046F023FFF7FEFE03
:1034B0000DF11009874BC4F8C83041464846A4F8BE
:1034C000CC5009F033FC99E8070004F1D40383E8F9
:1034D0000700DFF818B2CDF820B00D2308A9404648
:1034E000ADF8243009F0E8FE4146201D05F01FFF2D
:1034F0001E2300932A46294604F58A70C123FFF74C
:10350000D5FE754B754A7649DFF8E4814FF0050A20
:10351000A4F844A10093A3F133133846A3F54C5308
:10352000FFF742FF0C2308A93846ADF82430CDF848
:1035300020B0FFF745FF1E220092C1232A462946EC
:1035400004F5AC70FFF7B2FE424641463846FFF73D
:1035500046FF04F580691E22C4F81091C123009231
:1035600038466A221821FFF7A1FE3946201D1D2783
:1035700005F0DDFE00972A46294604F5EE70C123CA
:10358000FFF794FE544BA4F80CA20093A3F133135D
:10359000524A53493046A3F54C53FFF705FF0B231E
:1035A00008A93046ADF82430CDF820B0FFF708FF69
:1035B0000097C1232A46294604F50870FFF776FED6
:1035C000424641463046FFF70AFFC4F8D891C1236E
:1035D0000097A02230461821FFF768FE3146201DD3
:1035E0001C2605F0A4FE3C4F00962A46294604F509
:1035F0002970C123FFF75AFE384A0298A4F8D4A2D2
:10360000384B37490097FFF7CFFE0298CDF820B02E
:103610000A2308A9ADF82430FFF7D2FE0096C12393
:103620002A46294604F53A70FFF740FE02984246C2
:103630004146FFF7D4FE0298C4F8A092C123009639
:10364000D7221821FFF732FE1A260299201D05F015
:103650006EFE2A46294604F55B7000969F23FFF70D
:1036600025FE1E4A0398A4F89CA31E4B1C490097F4
:10367000FFF79AFE0398CDF820B0092308A9ADF80A
:103680002430FFF79DFE9F232A46294604F56C70DF
:103690000096FFF70BFE039813494FF07F42FFF7A8
:1036A0009EFE0398C4F868939F234FF48772009698
:1036B0002621FFF7FBFD201D039905F038FE20466B
:1036C0000BB0BDE8F08F00BF385E0208205E020834
:1036D0008B3100080707F2FF996633FFCC9900FF92
:1036E000996600FF663300FF0FB6F2FFB85B020871
:1036F0000A0A0AFF30B5036885B06D460181D3F828
:103700008430014604462846984795E807003C3433
:1037100084E8070005B030BD30B5036885B06D465C
:103720004181D3F88430014604462846984795E8FD
:1037300007003C3484E8070005B030BD0022028059
:1037400042808280C280704780F83610704770B522
:10375000036804461B6B1546984723682946204694
:103760005B6EBDE87040184700207047806C704762
:103770007047704710B54C2104461FF01EF92046D3
:1037800010BD000010B5034B036004460AF07AFD3B
:10379000204610BD085F020810B5064B03600446C2
:1037A0000AF070FD204641F248011FF006F920465C
:1037B00010BD00BF085F020808B5FDF741FE08BD57
:1037C000036870B55E6B124B1B6804468DB22BB953
:1037D000104B114A6C21114820F00EF81049828DCF
:1037E0000988914203D80F4B0B4A6D21F3E713F878
:1037F00012200D4B1B6853F8220003681B6B98477F
:10380000291A3346204609B2BDE87040184700BF68
:10381000303601202D5602086F560208AA560208BB
:1038200024360120F156020828360120012908B566
:1038300005D10CF055FBBDE80840FEF783BF08BD7D
:1038400000224FF0FF31C0E9002182607047000084
:103850004FF4807181840E4981624FF6FF7181853A
:103860004FF47F0141630B49016000224FF0FF31AB
:10387000C0E90122C0E90322C0E90522C0E907220C
:10388000C0E9101202630287C2638264704700BFFE
:10389000B85B0208785E02082DE9F04F04468DB04F
:1038A000A04600250EF05EFBA24BE56348F8403BC6
:1038B00004F16C0A4046FFF705FD04F198095046F3
:1038C000FFF700FD04F1C4074846FFF7FBFC04F5D1
:1038D000887B3846FFF7BCFF5846FFF7B9FF04F571
:1038E000AE7318460293FFF7EDFC04F5C473184657
:1038F0000393FFF7E7FC04F5DA731846049308F026
:10390000ABFB04F5FE7318460593FDF7C7FD8A4B24
:10391000C4F8FC312433C4F804324FF4616104F577
:103920000E70C4F808520AF0A3FC4FF4A0732A46A4
:10393000404600932946F023FFF7B8FC261D4FF0C0
:103940007F434146A366304605F0F1FC4FF4A07377
:103950000222504600932946F023FFF7A7FC774B3D
:10396000C4F894305146304605F0E1FC0223A2220F
:10397000484600932946F023FFF798FC4FF0FF33A9
:10398000C4F8C0304946304605F0D1FC2A46E32150
:103990003846FFF771FC4FF07F43C4F8F430D4F899
:1039A000C430A4F8F8500DF11808D3F88430DFF8CB
:1039B000B8A139464046984798E8070004F5807357
:1039C00083E80700DAF8003004F504792BB95C4B82
:1039D0005C4A60215C481FF00FFF5C4B1B88072B83
:1039E00003D85B4B574A6121F4E75A4B072118680B
:1039F000FFF72EFB584A03460A2148460FF0F3FE14
:103A00003846C4F80C9109F037FCDFF86091CDF826
:103A10002890082338460AA9ADF82C3009F04CFC50
:103A20003946304605F083FC4FF49472E321584642
:103A3000FFF722FCD4F81031A4F844514FF07F4234
:103A4000D3F88430C4F8402159464046984798E856
:103A5000070004F5A67383E80700DAF8003004F5E0
:103A60000977002BB3D0394A1388052BB9D9394BC4
:103A700005211868FFF7ECFA374A03460A21384651
:103A80000FF0B1FEC4F85871584609F0F5FB062353
:103A90000AA95846ADF82C300A27CDF8289009F02D
:103AA0000BFC5946304605F042FC3A460298009716
:103AB0003C235A21FFF7FAFB284B0299C4F88431C2
:103AC000304605F034FC039800974FF496723C237F
:103AD0005A21FFF7EBFB224B0399C4F8B031304673
:103AE00005F025FC1023049800939A227221FFF719
:103AF000DDFB4FF48073C4E97833C4F8E8314FF448
:103B00003453C4F8F031174BC4F808324FF2E16374
:103B1000A4F80C32059B0499C4F8F4513046C4F85B
:103B2000EC51C4F8DC3105F002FC20460DB0BDE8D4
:103B3000F08F00BF085F0208D8620208E32319FF74
:103B40002D5602082F570208AA56020824360120D3
:103B5000F15602082C3601207A5702080A0AFAFFA9
:103B600044FF00FF0ADCF7FF30360120B85B020893
:103B700070477047704730B4C268446855100346B8
:103B800004EB6200D20748BF62599B6830BC48BF53
:103B9000D35818470346406830B19A681AB9D868B4
:103BA00000F0010070470120704710B51021044655
:103BB0001EF003FF204610BD10B54FF433710446CC
:103BC0001EF0FBFE204610BD38B500F596739942F5
:103BD00004460D4603D10CF083F9FEF7C3FD04F54E
:103BE000FA74A54205D10CF07BF9BDE83840FEF728
:103BF00089BD38BD2DE9F04F04468BB0A0460025A5
:103C00000EF0B0F99B4BE56348F8403B04F16C09BA
:103C10004046FFF757FB04F198074846FFF752FB71
:103C200004F1E0063846FFF761FB3046FFF75EFB24
:103C3000914BC4F8E03004F596731846C4F8285147
:103C400004F5FA7A0293FFF773FB5046FFF770FB17
:103C50008A4BC4E9AF348A4BC4E9B1354FF4A07341
:103C60002A46404600932946F023FFF71FFB04F144
:103C7000040B4FF07F434146A366584605F057FBBF
:103C80004FF4A0732A46484600932946F023FFF7D5
:103C90000DFB7C4BC4F894304946584605F047FB71
:103CA0004B2229463846FFF7E7FA0DF11008764B0C
:103CB000C4F8C83039464046A4F8CC5009F036F86C
:103CC00098E8070004F1D40383E80700DFF8EC91DB
:103CD000CDF82090042308A93846ADF8243009F027
:103CE000EBFA3946584605F022FB94224A21304629
:103CF000FFF7C2FA4FF07F43C4F81031D4F8E03038
:103D0000A4F81451D3F8843031464046984798E8D7
:103D1000070004F58E7383E807005C4B1B682BB922
:103D20005B4B5C4A60215C481FF066FD5B4B1B8867
:103D3000022B03D85A4B574A6121F4E7594B022111
:103D40001868FFF785F9C4F82801304609F094FA9D
:103D5000032308A93046ADF824301C27CDF8209065
:103D600009F0AAFA3146584605F0E1FA00972A46CA
:103D7000294604F5B0707223FFF798FA4A4A4B4B74
:103D80004B494C48C4E96532D4F82C314FF0050852
:103D9000C4E9671008AE0298D3F88C30A4F890817B
:103DA00098470298CDF8209001233146424EADF855
:103DB0002430FFF705FB2A4629460097722304F5B5
:103DC000D270FFF773FA0298C4E97B66FFF78BF9AC
:103DD00004F52F7CC4F85CC1029800977223D822A6
:103DE0004021CDF80CC01A27FFF760FA0299584617
:103DF00005F09DFA2A46294604F50A700097A0238B
:103E0000FFF754FA284A294B29492A48A4F858822E
:103E1000C4E99732D4F8F431C4E99910D3F88C305E
:103E20005046984708A95046CDF82090ADF8245048
:103E3000FFF7C6FA2A462946A02304F51B7000970F
:103E4000FFF734FA5046C4E9AD66FFF74CF9039B1F
:103E5000C4F8243240F20512A023504600972921CD
:103E6000FFF724FA5846514605F061FA20460BB098
:103E7000BDE8F08F545F0208785E02083C5F0208DC
:103E8000C93B0008408249FF0A0AF2FF3036012090
:103E90002D5602082F570208AA5602082436012080
:103EA000F15602082C360120CC9900FF996600FFDC
:103EB000663300FF996633FF0A0A0AFFB85B0208FF
:103EC00070477047704730B4C26844685510034665
:103ED00004EB6200D20748BF62599B6830BC48BF00
:103EE000D35818470346406830B19A681AB9D86861
:103EF00000F0010070470120704710B51021044602
:103F00001EF05BFD204610BD10B54FF4DC71044679
:103F10001EF053FD204610BDE030884208B505D1A3
:103F20000BF0DEFFBDE80840FEF71CBC08BD00003A
:103F30002DE9F04F044689B0A04600250EF012F896
:103F40005D4BE56348F8403B04F16C0A404604F1E0
:103F50009807FFF7B7F95046FFF7B4F904F1E00608
:103F60003846FFF7C3F93046FFF7E2F9534BC4E98F
:103F70006A34534B4FF4A07BC4E96C352A4629467A
:103F80004046CDF800B0F023FFF790F904F10409A2
:103F90004FF07F43A3664146484605F0C8F92A46DC
:103FA00029465046CDF800B0F023FFF77FF9454B86
:103FB000C4F894305146484605F0B9F94A223846CB
:103FC0003E21FFF759F90DF108083F4BC4F8C830FE
:103FD00039464046A4F8CC5008F0A8FE98E80700FF
:103FE00004F1D40383E80700DFF8EC80CDF81880F3
:103FF0000F2306A93846ADF81C3009F05DF93946A3
:104000004846202705F093F92A46294604F58A7088
:104010000097F023FFF74AF90523A4F844312B4B0E
:10402000C4F8483103F54C533333C4F84C31A3F58D
:10403000CC43663BC4F8503103F1331303F54C53C2
:10404000C4F85431D4F8E0303046D3F88C30984777
:10405000CDF8188004F5AC780E2306A94046ADF8DB
:104060001C3009F029F9B4F9EA20B4F9E810404607
:10407000FFF70FF929462A4640460097F023FFF73D
:1040800015F9134A134B3046C4E96823FFF72BF8A0
:1040900004F5D473C4F81031D722F02329463046F2
:1040A0000097FFF703F94846314605F040F92046EE
:1040B00009B0BDE8F08F00BFA05F0208885F02086A
:1040C000193F0008A10500FF1414F5FF996600FFD1
:1040D00016ABF5FF0A0A0AFFB85B0208704710B575
:1040E0004FF4AE7104461EF068FC204610BD10B5BA
:1040F0000446D0F8580100F014F82046BDE81040FE
:104100000BF074BF10B50446FEF7B8FA014B2360FC
:10411000204610BDD45F020800210422C0E900122D
:1041200070477047704704387047704710B51021CA
:1041300004461EF042FC204610BDA0F10400F5E745
:1041400000228260024A026018324260C1607047F9
:1041500028600208704708B5C36B9B6801225A604B
:104160000BF0BEFEBDE80840FEF7DCBA08B5C36B35
:104170009B6802225A600BF0B3FEBDE80840FEF7D0
:10418000D1BA08B5C36B9B6803225A600BF0A8FE36
:10419000BDE80840FEF7C6BA10B5034B03600446FD
:1041A000FEF78CFF204610BD5060020810B5044693
:1041B000FFF7F2FF20464FF482611EF0FEFB20461F
:1041C00010BD000010B50446FFF710F9014B236045
:1041D000204610BD50600208FEF771BF70470438DA
:1041E0007047704710B5102104461EF0E6FB2046CC
:1041F00010BDA0F10400F5E700228260024A0260CF
:1042000018324260C1607047906002087047000039
:1042100010B5034B03600446FFF7B4FA204610BD07
:10422000B860020810B50446FFF7F2FF204641F2DD
:1042300064011EF0C2FB204610BD000010B504460C
:10424000FFF72AFB014B2360204610BDB86002082F
:1042500070B5044604F5805400F5DA769822702192
:104260003046FFF709F8236E23651FF0A7FB10F017
:10427000010F14BF4FF0FF3501251FF09FFB10F019
:10428000010F14BF4FF0FF33012307EE105A07EE62
:10429000903AD4ED146AB8EEC77AF8EEE77A27EED2
:1042A000267A67EEA67A84ED127AC4ED137A304648
:1042B000BDE8704008F092BB08B500F580539A6DD8
:1042C000042A02DCDB6D042B05DD0BF009FEBDE8E2
:1042D0000840FEF737BABDE80840FFF7B9BF000055
:1042E00070B500F580560D4DB36D04462A460A217F
:1042F00000F509700FF077FAF36D2A460A2104F5EC
:1043000004700FF070FA04F588700CF057FF04F198
:10431000C400BDE870400CF051BF00BF7D570208DB
:1043200010B50446FFF725FAE36B9B685B68012B29
:104330001AD0022BF0EE047AB0EE0C7A0CBF0422F5
:10434000062218BFF0EE477A04F5805320465A65DE
:104350000022C3E91622C3ED187AFFF7C1FF2046F9
:10436000BDE81040FFF774BF0222F7EE087AEBE7D2
:10437000CA884B899B1AB0F98C21042113FB0123B5
:10438000002B70B5044612DBB0F99051C5F1F00571
:104390009D42A8BF1D4604F5C47630460CF00EFFC2
:1043A000A4F88C513046BDE870400CF007BF0025E2
:1043B000F1E700002DE9F84F044600F5DA763046C3
:1043C00004F5AE7708F00AFB38460CF0F7FEB4F9B6
:1043D000BA3107EE103A04F58055D5ED137AB4F9E9
:1043E000B831D5ED126AB8EEC77A304637EE277A83
:1043F00007EE903AF8EEE77ABDEEC77A77EEA67A46
:1044000017EE103AFDEEE77A1AB217EE903A19B2AB
:10441000FEF732FFB4F96401B4F960E1B4F9BC11FC
:10442000B4F9B88100EBD0730EEB63094FEA630C6B
:1044300001EBD1735A1008EB630399451FDA6B6DDA
:104440007344A4F86031B4F96031002BBCBF002381
:10445000A4F86031B4F960E1C0F1F0039E45C8BF33
:10446000A4F86031B8F1000F10DC0023D5ED127A0A
:10447000A4F8B831F1EE677AC5ED127A0AE0C2BF4E
:104480006B6DAEEB030EA4F860E1DCE7C1F1F00365
:104490009845EBDAB4F9BA81B4F9BEE1B4F98EA16A
:1044A00008EB0E03534548DBB4F992315344984569
:1044B00043DCB4F9B831B4F98C8101EB0309C1458F
:1044C0003BDBB4F9909109EB080B5B4535DC95EDCE
:1044D000137ADFED4A6A09EBD979134408EB6908CE
:1044E000F1EE477AAAEB0E0AA3EB0803A4F8BAA1EF
:1044F000C5ED137A07EE903AF8EEE77A67EEA67A02
:10450000F2EE006AC5ED127AD5ED147AF4EEE67A91
:10451000F1EE10FA44BFF6EE006A77EEA67AB5EE39
:10452000C07A48BFC5ED147AF1EE10FAC2BFD5EDDE
:10453000147AF1EE677AC5ED137AB4F96291B4F9A1
:104540006631B4F9BA814B44984539DCF044C14531
:1045500036DCB4F9B891B4F96081494441452FDBA8
:10456000404481452CDC95ED137AA4F8BA314A44D5
:10457000C444F1EE477AA2EB0C02C5ED137A07EEC4
:10458000902ADFED1E6AF8EEE77A67EEA67AF2EE81
:10459000006AC5ED127AD5ED147AF4EEE67AF1EE02
:1045A00010FA44BFF6EE006A77EEA67AB5EEC07A4E
:1045B00048BFC5ED147AF1EE10FA44BF2B6DEB64E1
:1045C000B4F9BA3113EB0E0F10D5AB6D0133AB65F7
:1045D0002046FFF785FE2046FFF76EFE304608F0C6
:1045E000FDF93846BDE8F84F0CF0E8BDB3F5A07F03
:1045F000F4DDEB6D0133EB65EAE700BF9A99193EF4
:10460000704704387047704710B5102104461EF0FB
:10461000D4F9204610BDA0F10400F5E70022826025
:10462000024A026018324260C1607047EC600208C2
:104630007047000010B5034B03600446FFF799FA7A
:10464000204610BD1461020810B50446FFF7F2FFC2
:1046500020464FF433711EF0B0F9204610BD000023
:1046600010B50446FFF7C6FA014B2360204610BD83
:1046700014610208FFF77EBA70470438704770472C
:1046800010B5102104461EF098F9204610BDA0F187
:104690000400F5E700228260024A0260183242609C
:1046A000C1607047486102087047000010B5034BB5
:1046B00003600446FFF705FC204610BD7061020848
:1046C00010B50446FFF7F2FF20464FF4DC711EF0F0
:1046D00074F9204610BD000010B50446FFF728FC11
:1046E000014B2360204610BD70610208FFF7EABB52
:1046F000F02070474FF4A07070472920FDF76CBA86
:104700002820FDF769BA08B5FDF73AFACA20FDF787
:1047100063FAC320FDF744FA0820FDF741FA502060
:10472000FDF73EFACF20FDF757FA0020FDF738FAE3
:10473000C120FDF735FA3020FDF732FAED20FDF704
:104740004BFA6420FDF72CFA0320FDF729FA12201A
:10475000FDF726FA8120FDF723FAE820FDF73CFA61
:104760008520FDF71DFA0020FDF71AFA7820FDF7E5
:1047700017FACB20FDF730FA3920FDF711FA2C207B
:10478000FDF70EFA0020FDF70BFA3420FDF708FACA
:104790000220FDF705FAF720FDF71EFA2020FDF7AD
:1047A000FFF9EA20FDF718FA0020FDF7F9F90020DB
:1047B000FDF7F6F9B120FDF70FFA0020FDF7F0F94B
:1047C0001B20FDF7EDF9B620FDF706FA0A20FDF7EC
:1047D000E7F9A220FDF7E4F9C020FDF7FDF910206C
:1047E000FDF7DEF9C120FDF7F7F91020FDF7D8F944
:1047F000C520FDF7F1F94520FDF7D2F91520FDF7A9
:10480000CFF9C720FDF7E8F99020FDF7C9F9362068
:10481000FDF7E2F9C820FDF7C3F9F220FDF7DCF956
:104820000020FDF7BDF9B020FDF7D6F9C220FDF755
:10483000B7F9B620FDF7D0F90A20FDF7B1F9A720A6
:10484000FDF7AEF92720FDF7ABF90420FDF7A8F935
:104850002A20FDF7C1F90020FDF7A2F90020FDF79D
:104860009FF90020FDF79CF9EF20FDF799F92B2027
:10487000FDF7B2F90020FDF793F90020FDF790F95C
:104880000120FDF78DF93F20FDF78AF9F620FDF7AD
:10489000A3F90120FDF784F90020FDF781F9062036
:1048A000FDF77EF92C20FDF797F9C820FDF7E2F916
:1048B0002620FDF791F90120FDF772F9E020FDF7C0
:1048C0008BF90F20FDF76CF92920FDF769F92420F9
:1048D000FDF766F90C20FDF763F90E20FDF760F98E
:1048E0000920FDF75DF94E20FDF75AF97820FDF714
:1048F00057F93C20FDF754F90920FDF751F9132031
:10490000FDF74EF90520FDF74BF91720FDF748F9A3
:104910001120FDF745F90020FDF742F9E120FDF7F0
:104920005BF90020FDF73CF91620FDF739F91B2053
:10493000FDF736F90420FDF733F91120FDF730F9C2
:104940000720FDF72DF93120FDF72AF93320FDF777
:1049500027F94220FDF724F90520FDF721F90C2065
:10496000FDF71EF90A20FDF71BF92820FDF718F9BD
:104970002F20FDF715F90F20FDF712F91120FDF793
:104980002BF9C820FDF776F92920FDF725F9BDE8B8
:1049900008402C20FDF720B908B5FDF7F1F80321F8
:1049A000D320FDF735F980B208BD10B5C4B202229C
:1049B00003212046FDF79AF80A20FDF7DFF820468C
:1049C00000220321FDF792F8BDE810400220FDF718
:1049D000D5B838B50446E4B2FDF786F80021204684
:1049E000FDF79CF8012105462046FDF797F840EABF
:1049F000052080B238BD10B5C4B240212046FDF775
:104A00008DF8030607D54C212046FDF787F80038BE
:104A100018BF012010BD01224B212046FDF766F88A
:104A2000204600224B21FDF761F80020F2E773B524
:104A30000423C4B20E461546D7210DEB03022046CF
:104A4000FDF786F8019B1BBA1A0DC3F30B233280C6
:104A500020462B8001224B21FDF748F800224B21F4
:104A60002046FDF743F802B070BD000010B50A4AB9
:104A70001378984204460DD0517888420AD00BB181
:104A800041B90123D454FDF72FF82046BDE810406A
:104A9000FFF78BBF10BD00BF6428002010B5C4B263
:104AA00009212046FDF73AF840F00102D2B2204633
:104AB0000921BDE81040FDF719B810B5C4B20921AD
:104AC0002046FDF72BF8092100F0FE022046BDE844
:104AD0001040FDF70BB838B5C4B20D4620460A2188
:104AE000FDF71CF840EA0502D2B220460A21BDE8D3
:104AF0003840FCF7FBBF10B50446FCF7F6FF204634
:104B00001F21FFF7E8FF2046BDE81040FFF7C6BFB2
:104B100038B5C4B20D4620460A21FCF7FFFF20EA53
:104B20000502D2B220460A21BDE83840FCF7DEBFBC
:104B300010B50446FFF7C1FF20461F21BDE8104015
:104B4000FFF7E6BF10B5C0B20C460B21FCF7E6FF3D
:104B5000204010BD1F21FFF7F5BF0A46C0B20B2150
:104B6000FCF7C4BF1F21FFF7F8BF38B5C4B20D462C
:104B700020461721FCF7D2FF20EA0502D2B22046D8
:104B80001721BDE83840FCF7B1BF70B5C4B2064686
:104B900004212046FCF7C2FF042100F0FB02054679
:104BA0002046FCF7A3FF3046F021FFF7DEFF05F0BB
:104BB000F80220460421FCF799FF492220212046D3
:104BC000FCF794FF0220FCF7D9FF204601222121A7
:104BD000FCF78CFF20469A224121FCF787FF2046F4
:104BE00001224A21FCF782FF204601224B21FCF7DB
:104BF0007DFF204600224B21FCF778FF2046012252
:104C00005621FCF773FF204601225821FCF76EFF66
:104C1000204601224021FCF769FF2046FF220B219C
:104C2000FCF764FFBDE870400220FCF7A7BF00005E
:104C3000054BD3F8882042F47002C3F888204FF067
:104C400000629A60704700BF00ED00E008B50B4BB2
:104C50001A6842F400721A601A6842F480621A609C
:104C60001A6842F480721A60032000F02FF80020C6
:104C7000FDF742FAFDF70CF8002008BD003C0240A9
:104C8000034A044B11681B780B441360704700BF44
:104C90006828002078000020014B1868704700BF8A
:104CA0006828002038B50446FFF7F6FF631C1CBFD8
:104CB000054B1B78054618BFE418FFF7EDFF431BB3
:104CC000A342FAD338BD00BF780000200749CA6864
:104CD00022F4E0620302120403F4E063120C1343B3
:104CE00043F0BF6343F40033CB60704700ED00E056
:104CF000164B30B5DC68C4F30224C4F10703251D4C
:104D0000042B28BF0423062D4FF0FF358CBF033C36
:104D1000002405FA03F321EA0303A54022EA050271
:104D2000A340002843EA0203ACBF00F16040084AF8
:104D30004FEA0313B8BF00F00F00DBB2AABF00F5C3
:104D40006140135480F8003330BD00BF00ED00E037
:104D500014ED00E0002807DB044A4109012300F0BC
:104D60001F00834042F82130704700BF00E100E09F
:104D700010B5044650B1437903F0FF0213B9027134
:104D8000FCF7A6FF01236371002010BD0120FCE7A2
:104D900010B5044620B390F8393003F0FF021BB978
:104DA00080F83820FCF7ACFF022384F83930236800
:104DB00061681A6822F440320A431A605A6BA1688B
:104DC00022F007020A435A631A6CE1686FF30D027E
:104DD0000A431A6400200123E06384F8393010BDCF
:104DE0000120FCE770477047036870B55E681D6876
:104DF000F207044614D5E90512D51A6822F4807228
:104E00001A60C26B42F00102C26301229A6004235D
:104E100080F83930002380F83830436903B198476F
:104E2000B20616D5AB0414D523681A6822F40052D2
:104E30001A6020229A60E36B43F00203E3630423C9
:104E400084F83930002384F8383063690BB1204688
:104E50009847300716D5290514D523681A6822F417
:104E600000621A6008229A60E36B43F00403E36374
:104E7000042384F83930002384F8383063690BB197
:104E80002046984772070BD56B0509D523681A6829
:104E900022F480621A6004229A602046FFF7A2FF83
:104EA000B00714D5A90512D523681A6822F4007238
:104EB0001A6002229A60E36BE363012384F83930BD
:104EC000002384F8383023690BB120469847F20656
:104ED00013D5EB0411D523681A6822F480521A60A6
:104EE00010229A60E36BE363012384F839300023D6
:104EF00084F838302046FFF776FF70BDF0B590F8A3
:104F00003820012A03464FF002002BD0012283F8FB
:104F1000382083F8390003EB0112D2E90740556AC3
:104F2000174F44EA0040093C012C9CBF05F07F422A
:104F300010434FEA01161A6888BF40EA056091B92C
:104F4000516A394001435162012C9969916103D83A
:104F5000596A21F07F4191620122002083F83920B3
:104F600083F83800F0BDD16939400143D161991906
:104F7000012C896911619CBF25F07F451562EBE723
:104F8000F0FFFC002DE9F74FDFF8BC916C4A0023DD
:104F90000D6801249C4004EA0506AC4340F0B7804C
:104FA0004D68032705F003044FEA430807FA08FC9D
:104FB000671E012F6FEA0C0C34D8876807EA0C0EC5
:104FC000CF6807FA08F747EA0E078760476827EABD
:104FD000060EC5F300179F4047EA0E074760C768F3
:104FE00007EA0C0E8F6807FA08F747EA0E07022C4B
:104FF000C76019D14FEAD30A00EB8A0A03F0070B06
:10500000DAF820704FEA8B0B4FF00F0E0EFA0BFE02
:1050100027EA0E0E0F6907FA0BF747EA0E07CAF8E0
:10502000207001E0032CDAD1076804FA08F407EADB
:105030000C073C4315F4403F046068D00024019401
:10504000D9F8444044F48044C9F84440D9F8444075
:1050500023F0030707F1804704F4804407F59C37E9
:10506000019403F0030C019CD7F808E04FEA8C0C84
:105070000F2404FA0CF42EEA040E324CA0424DD058
:1050800004F58064A0424BD004F58064A04249D06E
:1050900004F58064A04247D004F58064A04245D066
:1050A00004F58064A04243D004F58064A04241D05E
:1050B00004F58064A0423FD004F58064A0423DD056
:1050C00004F58064A04214BF0A24092404FA0CF4F5
:1050D00044EA0E04BC609468F74315F4801F0CBFCB
:1050E0003C4034439460D46815F4001F0CBF3C402E
:1050F0003443D460546815F4003F0CBF3C40344343
:1051000054601468ED0354BF3C40344314600133D1
:10511000102B7FF43DAF03B0BDE8F08F0024D5E73E
:105120000124D3E70224D1E70324CFE70424CDE709
:105130000524CBE70624C9E70724C7E70824C5E709
:10514000003C01400000024000380240036919425F
:1051500014BF0120002070470AB181617047090423
:10516000FBE7436901EA030221EA030141EA024144
:105170008161704701684B6913F480634FF000024E
:1051800010D06FF480634B612023026380F83D30C0
:1051900080F83E20036C80F83C2043F00403036455
:1051A00001207047184670472DE9F84606460F461D
:1051B00091461D464FEA114A3368BAF1010F0CBF00
:1051C0005C699C6927EA0404A4B2B4FA84F4640913
:1051D000A14501D0002025E06A1CEED0FFF75CFD60
:1051E000089BC01AA84201D8002DE5D13368BAF156
:1051F000010F0CBF5B699B6927EA03039BB2B3FAFB
:1052000083F35B099945D7D100232022336386F8C5
:105210003D2086F83E30326C86F83C3042F0200269
:1052200032640120BDE8F8862DE9F04104460F46BE
:10523000164698462568686927EA000080B2C0B122
:105240006B695A0517D52B6843F400732B606FF414
:1052500080636B6120220023236384F83D2084F85F
:105260003E30236C43F004032364002384F83C3075
:105270000120BDE8F081731CDDD0FFF70DFDA0EB30
:105280000800B04201D8002ED4D123685A6927EA19
:10529000020292B2002ACDD000232022236384F898
:1052A0003D2084F83E30236C1343DDE770B504469F
:1052B0000D46164623685B691B0601D500201EE0DB
:1052C0002046FFF757FFC8B96A1CF3D0FFF7E4FC8C
:1052D000801BA84201D8002DECD123685B6913F034
:1052E0008003E7D12022236384F83D2084F83E30F8
:1052F000226C84F83C3042F020022264012070BD10
:105300002DE9F0431546026885B0DDE90C78994631
:10531000136843F4807313600E463B46CDF800805B
:1053200000224FF001110446FFF73EFF236838B119
:105330001B68DB0502D54FF400732364032620E0CD
:1053400006F0FE061E611A4943463A462046FFF71C
:105350006BFFA8B9236803905A6903929B69039372
:10536000424639462046039BFFF7A0FF064660B140
:10537000236C042B01BF2268136843F4007313608D
:105380000126304605B0BDE8F083B9F1010F23686E
:1053900002D1EDB21D61F4E72A0A1A61394642468C
:1053A0002046FFF783FF0028E2D12368F1E700BF22
:1053B000020001002DE9FF479A46036815461A6866
:1053C00042F480621A601A68DDE90C7842F4807257
:1053D0001A600E463B46CDF8008000224FF00111C6
:1053E0000446FFF7E1FE236838B11B68DB0544BFC4
:1053F0004FF400732364032021E05FFA86F906F07E
:10540000FE061E612B4943463A462046FFF70CFF35
:10541000A0B9236803905A6903929B69039342469B
:1054200039462046039BFFF741FF58B1236C042BFC
:1054300001BF2268136843F400731360012004B0B5
:10544000BDE8F087BAF1010F23681AD1EDB24246E8
:105450001D6139462046FFF729FF02460028E5D1A5
:1054600021680B6843F480730B602046CDF8008000
:105470003B464FF00111FFF797FE226860B11368B9
:10548000B4E72A0A1A61394642462046FFF70EFF62
:105490000028CBD12368D9E749F0010313610549FE
:1054A00043463A462046FFF7BFFE003818BF0120AA
:1054B000C5E700BF0200010070B504460D46164660
:1054C00023685B695B0701D500201EE02046FFF7DB
:1054D00051FEC8B96A1CF3D0FFF7DEFB801BA8425F
:1054E00001D8002DECD123685B6913F00403E7D1E8
:1054F0002022236384F83D2084F83E30226C84F817
:105500003C3042F020022264012070BD70B5044698
:105510000D46164621684B6913F0400301D0002068
:1055200011E04A69D2060FD56FF010024A612022BD
:10553000236384F83D2084F83E30236C23640023E9
:1055400084F83C30012070BDFFF7A6FB801BA84209
:1055500001D8002DDED123685B6913F04003D9D157
:105560002022236384F83D2084F83E30236C1343CB
:10557000E4E7000070B5044608B9012070BD90F85A
:105580003D3003F0FF021BB980F83C20FCF7DAFB4A
:10559000242384F83D3023681A6822F001021A603F
:1055A0001A6842F400421A601A6822F400421A6033
:1055B00000F0A8FE3F4B65689D4294BF3E4B3F4BB9
:1055C00098428CBF00230123002BD6D12268394E8C
:1055D00051683B4BB0FBF3F321F03F011943B54257
:1055E000516088BF4FF49676116A88BF734321F0EB
:1055F0003F0184BF4FF47A76B3FBF6F301330B43DC
:105600001362D169431E2B4821F44F41854221F09A
:10561000FF0132D86D0040F6FC70B3FBF5F30133A7
:10562000034242D0C3F30B031943D161D4E90730DD
:105630001168034321F0C0010B4313609168D4E962
:10564000030321F40341034321F0FF010B43936063
:10565000D4E90530D168034321F0FF010B43D36047
:10566000136843F00103136000202023206484F8B2
:105670003D30206384F83E0080E7A06850B905EB18
:105680004505B3FBF5F30133C3F30B037BB143F4DF
:105690000043C9E719206843B3FBF0F30133C3F3B8
:1056A0000B0323B143F44043BEE70423BCE70123CB
:1056B000BAE700BFA08601007F841E00FF083D00FE
:1056C00040420F002DE9F743044699460C9E0F46D1
:1056D0009046FFF7E1FA94F83D30202B054603D0C1
:1056E000022003B0BDE8F08300903C491923012259
:1056F0002046FFF759FD0028F2D194F83C30012BE9
:10570000EED02068012384F83C300368D9075EBFDF
:10571000036843F001030360036823F4006303603C
:10572000212384F83D30402384F83E300023236455
:105730000A9B6362BDF82C306385638D2385284BFB
:10574000E3624246CDE900654B4639462046FFF705
:10575000D7FD00282AD00120C3E7FFF7A7FD40B1FD
:10576000236C042B01BF2268136843F40073136099
:10577000F1E7636A27681A4612F8011B3961626211
:10578000628D218D013A92B262857A69481E80B29B
:10579000520720850AD548B15A783A6102336362CC
:1057A000638D013B02399BB221856385238D2A4697
:1057B00031462046002BD0D1FFF77EFE0028CFD106
:1057C0002268136843F400731360202384F83D308B
:1057D00084F83C0084F83E0083E700BF020010001C
:1057E0000000FFFF2DE9F043044687B09946109F63
:1057F0000D469046FFF750FA94F83D30202B0646B0
:1058000004D00225284607B0BDE8F08300907A490D
:10581000192301222046FFF7C7FC0028F1D194F894
:105820003C30012BEDD02068012384F83C30036824
:10583000DB075EBF036843F001030360036823F4E2
:1058400000630360222384F83D30402384F83E3017
:10585000002323640E9B6362BDF83C306385638D37
:105860002385664BE3622946CDE900764B464246E6
:105870002046FFF79FFD054608B10125C2E7228DAE
:105880002368B2B902905A6902929A690292029A06
:105890001A6842F400721A60DFF86481238D002BCD
:1058A0002CD1202284F83D2084F83C3084F83E300E
:1058B000A8E7012A0AD11A6822F480621A600390CC
:1058C0005A6903929A690392039AE1E7022A0ED178
:1058D0001A6822F480621A601A6842F400621A6040
:1058E00004905A6904929B690493049BD4E7059041
:1058F0005A6905929B690593059BCDE7032B56D802
:10590000012B15D1324639462046FFF7FFFD00280E
:10591000B3D123681A69636A1A70636A01336362D8
:10592000238D013B2385638D013B9BB26385B5E7E6
:10593000022B00963B464FF000024146204619D10B
:10594000FFF732FC002898D123681A6842F40072ED
:105950001A601A69636A1A70626A531C6362238D43
:10596000013B2385638D013B9BB2638523681B69E3
:105970005370D2E7FFF718FC024600287FF47DAF92
:105980002368196821F4806119601969636A1970C4
:10599000636A01336362238D013B2385638D013B81
:1059A0009BB26385414600963B462046C8E7324697
:1059B00039462046FFF7AAFD00287FF45EAF236832
:1059C0001A69636A1A70628D616A013A92B24B1C5D
:1059D000628522686362238D5069013B9BB2400758
:1059E00023857FF55BAF032B02BF136823F480632D
:1059F000136013694B7090E7020010000000FFFF76
:105A00000400010010B590F83D30202BDCB216D117
:105A1000242380F83D3003681A6822F001021A60DE
:105A20005A6A22F010025A625A6A114359621A687D
:105A300042F001021A6080F83D40002010BD0220B3
:105A4000FCE730B590F83D30202BDCB216D102686F
:105A5000242380F83D30136823F001031360556A56
:105A60004FF6F0732B400B439BB25362136843F025
:105A70000103136080F83D40002030BD0220FCE7A8
:105A80000068D1F800C0D201843283182DE9F043B8
:105A9000C6685D684C68D1F8189005F470455D6083
:105AA000C5680CF10107C5F30B45C6F30B46264448
:105AB0003D4445EA06455D60C668CD68C6F30A0602
:105AC0002E449D6805F470459D60C7688D68C7F3D6
:105AD0000A0701353D4445EA06459D601D690E698A
